{
  "_format": "hh-sol-artifact-1",
  "contractName": "NFTMarket",
  "sourceName": "contracts/NFTMarket.sol",
  "abi": [
    {
      "inputs": [],
      "stateMutability": "nonpayable",
      "type": "constructor"
    },
    {
      "anonymous": false,
      "inputs": [
        {
          "indexed": true,
          "internalType": "uint256",
          "name": "itemId",
          "type": "uint256"
        },
        {
          "indexed": true,
          "internalType": "address",
          "name": "nftContract",
          "type": "address"
        },
        {
          "indexed": true,
          "internalType": "uint256",
          "name": "tokenId",
          "type": "uint256"
        },
        {
          "indexed": false,
          "internalType": "address",
          "name": "seller",
          "type": "address"
        },
        {
          "indexed": false,
          "internalType": "address",
          "name": "owner",
          "type": "address"
        },
        {
          "indexed": false,
          "internalType": "uint256",
          "name": "price",
          "type": "uint256"
        },
        {
          "indexed": false,
          "internalType": "bool",
          "name": "sold",
          "type": "bool"
        }
      ],
      "name": "MarketItemCreated",
      "type": "event"
    },
    {
      "inputs": [
        {
          "internalType": "address",
          "name": "nftContract",
          "type": "address"
        },
        {
          "internalType": "uint256",
          "name": "tokenId",
          "type": "uint256"
        },
        {
          "internalType": "uint256",
          "name": "price",
          "type": "uint256"
        }
      ],
      "name": "createMarketItem",
      "outputs": [],
      "stateMutability": "payable",
      "type": "function"
    },
    {
      "inputs": [
        {
          "internalType": "address",
          "name": "nftContract",
          "type": "address"
        },
        {
          "internalType": "uint256",
          "name": "itemId",
          "type": "uint256"
        }
      ],
      "name": "createMarketSale",
      "outputs": [],
      "stateMutability": "payable",
      "type": "function"
    },
    {
      "inputs": [],
      "name": "fetchItemsCreated",
      "outputs": [
        {
          "components": [
            {
              "internalType": "uint256",
              "name": "itemId",
              "type": "uint256"
            },
            {
              "internalType": "address",
              "name": "nftContract",
              "type": "address"
            },
            {
              "internalType": "uint256",
              "name": "tokenId",
              "type": "uint256"
            },
            {
              "internalType": "address payable",
              "name": "seller",
              "type": "address"
            },
            {
              "internalType": "address payable",
              "name": "owner",
              "type": "address"
            },
            {
              "internalType": "uint256",
              "name": "price",
              "type": "uint256"
            },
            {
              "internalType": "bool",
              "name": "sold",
              "type": "bool"
            }
          ],
          "internalType": "struct NFTMarket.MarketItem[]",
          "name": "",
          "type": "tuple[]"
        }
      ],
      "stateMutability": "view",
      "type": "function"
    },
    {
      "inputs": [],
      "name": "fetchMarketItems",
      "outputs": [
        {
          "components": [
            {
              "internalType": "uint256",
              "name": "itemId",
              "type": "uint256"
            },
            {
              "internalType": "address",
              "name": "nftContract",
              "type": "address"
            },
            {
              "internalType": "uint256",
              "name": "tokenId",
              "type": "uint256"
            },
            {
              "internalType": "address payable",
              "name": "seller",
              "type": "address"
            },
            {
              "internalType": "address payable",
              "name": "owner",
              "type": "address"
            },
            {
              "internalType": "uint256",
              "name": "price",
              "type": "uint256"
            },
            {
              "internalType": "bool",
              "name": "sold",
              "type": "bool"
            }
          ],
          "internalType": "struct NFTMarket.MarketItem[]",
          "name": "",
          "type": "tuple[]"
        }
      ],
      "stateMutability": "view",
      "type": "function"
    },
    {
      "inputs": [],
      "name": "fetchMyNFTs",
      "outputs": [
        {
          "components": [
            {
              "internalType": "uint256",
              "name": "itemId",
              "type": "uint256"
            },
            {
              "internalType": "address",
              "name": "nftContract",
              "type": "address"
            },
            {
              "internalType": "uint256",
              "name": "tokenId",
              "type": "uint256"
            },
            {
              "internalType": "address payable",
              "name": "seller",
              "type": "address"
            },
            {
              "internalType": "address payable",
              "name": "owner",
              "type": "address"
            },
            {
              "internalType": "uint256",
              "name": "price",
              "type": "uint256"
            },
            {
              "internalType": "bool",
              "name": "sold",
              "type": "bool"
            }
          ],
          "internalType": "struct NFTMarket.MarketItem[]",
          "name": "",
          "type": "tuple[]"
        }
      ],
      "stateMutability": "view",
      "type": "function"
    },
    {
      "inputs": [],
      "name": "getListingPrice",
      "outputs": [
        {
          "internalType": "uint256",
          "name": "",
          "type": "uint256"
        }
      ],
      "stateMutability": "view",
      "type": "function"
    },
    {
      "inputs": [
        {
          "internalType": "uint256",
          "name": "_price",
          "type": "uint256"
        }
      ],
      "name": "setListingPrice",
      "outputs": [
        {
          "internalType": "uint256",
          "name": "",
          "type": "uint256"
        }
      ],
      "stateMutability": "nonpayable",
      "type": "function"
    }
  ],
  "bytecode": "0x60806040526658d15e1762800060045534801561001b57600080fd5b50600160008190555033600360006101000a81548173ffffffffffffffffffffffffffffffffffffffff021916908373ffffffffffffffffffffffffffffffffffffffff1602179055506119a0806100746000396000f3fe6080604052600436106100705760003560e01c806358eb2df51161004e57806358eb2df5146100f65780637c726b6914610112578063c23b139e1461014f578063f064c32e1461016b57610070565b80630f08efe01461007557806312e85585146100a0578063202e3740146100cb575b600080fd5b34801561008157600080fd5b5061008a610196565b604051610097919061141d565b60405180910390f35b3480156100ac57600080fd5b506100b5610475565b6040516100c2919061144e565b60405180910390f35b3480156100d757600080fd5b506100e061047f565b6040516100ed919061141d565b60405180910390f35b610110600480360381019061010b91906114c6565b6107e1565b005b34801561011e57600080fd5b5061013960048036038101906101349190611519565b610b44565b604051610146919061144e565b60405180910390f35b61016960048036038101906101649190611546565b610b8b565b005b34801561017757600080fd5b50610180610e43565b60405161018d919061141d565b60405180910390f35b606060006101a460016111a5565b905060006101b260026111a5565b6101bc60016111a5565b6101c691906115b5565b90506000808267ffffffffffffffff8111156101e5576101e46115e9565b5b60405190808252806020026020018201604052801561021e57816020015b61020b6111c9565b8152602001906001900390816102035790505b50905060005b8481101561046a57600073ffffffffffffffffffffffffffffffffffffffff16600560006001846102559190611618565b815260200190815260200160002060040160009054906101000a900473ffffffffffffffffffffffffffffffffffffffff1673ffffffffffffffffffffffffffffffffffffffff1603610457576000600560006001846102b59190611618565b81526020019081526020016000206000015490506000600560008381526020019081526020016000209050806040518060e0016040529081600082015481526020016001820160009054906101000a900473ffffffffffffffffffffffffffffffffffffffff1673ffffffffffffffffffffffffffffffffffffffff1673ffffffffffffffffffffffffffffffffffffffff168152602001600282015481526020016003820160009054906101000a900473ffffffffffffffffffffffffffffffffffffffff1673ffffffffffffffffffffffffffffffffffffffff1673ffffffffffffffffffffffffffffffffffffffff1681526020016004820160009054906101000a900473ffffffffffffffffffffffffffffffffffffffff1673ffffffffffffffffffffffffffffffffffffffff1673ffffffffffffffffffffffffffffffffffffffff168152602001600582015481526020016006820160009054906101000a900460ff16151515158152505084868151811061043a5761043961164c565b5b60200260200101819052506001856104529190611618565b945050505b80806104629061167b565b915050610224565b508094505050505090565b6000600454905090565b6060600061048d60016111a5565b905060008060005b83811015610535573373ffffffffffffffffffffffffffffffffffffffff16600560006001846104c59190611618565b815260200190815260200160002060040160009054906101000a900473ffffffffffffffffffffffffffffffffffffffff1673ffffffffffffffffffffffffffffffffffffffff16036105225760018361051f9190611618565b92505b808061052d9061167b565b915050610495565b5060008267ffffffffffffffff811115610552576105516115e9565b5b60405190808252806020026020018201604052801561058b57816020015b6105786111c9565b8152602001906001900390816105705790505b50905060005b848110156107d6573373ffffffffffffffffffffffffffffffffffffffff16600560006001846105c19190611618565b815260200190815260200160002060040160009054906101000a900473ffffffffffffffffffffffffffffffffffffffff1673ffffffffffffffffffffffffffffffffffffffff16036107c3576000600560006001846106219190611618565b81526020019081526020016000206000015490506000600560008381526020019081526020016000209050806040518060e0016040529081600082015481526020016001820160009054906101000a900473ffffffffffffffffffffffffffffffffffffffff1673ffffffffffffffffffffffffffffffffffffffff1673ffffffffffffffffffffffffffffffffffffffff168152602001600282015481526020016003820160009054906101000a900473ffffffffffffffffffffffffffffffffffffffff1673ffffffffffffffffffffffffffffffffffffffff1673ffffffffffffffffffffffffffffffffffffffff1681526020016004820160009054906101000a900473ffffffffffffffffffffffffffffffffffffffff1673ffffffffffffffffffffffffffffffffffffffff1673ffffffffffffffffffffffffffffffffffffffff168152602001600582015481526020016006820160009054906101000a900460ff1615151515815250508486815181106107a6576107a561164c565b5b60200260200101819052506001856107be9190611618565b945050505b80806107ce9061167b565b915050610591565b508094505050505090565b600260005403610826576040517f08c379a000000000000000000000000000000000000000000000000000000000815260040161081d90611720565b60405180910390fd5b600260008190555060008111610871576040517f08c379a00000000000000000000000000000000000000000000000000000000081526004016108689061178c565b60405180910390fd5b60045434146108b5576040517f08c379a00000000000000000000000000000000000000000000000000000000081526004016108ac9061181e565b60405180910390fd5b6108bf60016111b3565b60006108cb60016111a5565b90506040518060e001604052808281526020018573ffffffffffffffffffffffffffffffffffffffff1681526020018481526020013373ffffffffffffffffffffffffffffffffffffffff168152602001600073ffffffffffffffffffffffffffffffffffffffff16815260200183815260200160001515815250600560008381526020019081526020016000206000820151816000015560208201518160010160006101000a81548173ffffffffffffffffffffffffffffffffffffffff021916908373ffffffffffffffffffffffffffffffffffffffff1602179055506040820151816002015560608201518160030160006101000a81548173ffffffffffffffffffffffffffffffffffffffff021916908373ffffffffffffffffffffffffffffffffffffffff16021790555060808201518160040160006101000a81548173ffffffffffffffffffffffffffffffffffffffff021916908373ffffffffffffffffffffffffffffffffffffffff16021790555060a0820151816005015560c08201518160060160006101000a81548160ff0219169083151502179055509050508373ffffffffffffffffffffffffffffffffffffffff166323b872dd3330866040518463ffffffff1660e01b8152600401610aac9392919061184d565b600060405180830381600087803b158015610ac657600080fd5b505af1158015610ada573d6000803e3d6000fd5b50505050828473ffffffffffffffffffffffffffffffffffffffff16827f045dfa01dcba2b36aba1d3dc4a874f4b0c5d2fbeb8d2c4b34a7d88c8d8f929d1336000876000604051610b2e9493929190611893565b60405180910390a4506001600081905550505050565b60003073ffffffffffffffffffffffffffffffffffffffff163373ffffffffffffffffffffffffffffffffffffffff1603610b8157816004819055505b6004549050919050565b600260005403610bd0576040517f08c379a0000000000000000000000000000000000000000000000000000000008152600401610bc790611720565b60405180910390fd5b6002600081905550600060056000838152602001908152602001600020600501549050600060056000848152602001908152602001600020600201549050813414610c50576040517f08c379a0000000000000000000000000000000000000000000000000000000008152600401610c479061194a565b60405180910390fd5b6005600084815260200190815260200160002060030160009054906101000a900473ffffffffffffffffffffffffffffffffffffffff1673ffffffffffffffffffffffffffffffffffffffff166108fc349081150290604051600060405180830381858888f19350505050158015610ccc573d6000803e3d6000fd5b508373ffffffffffffffffffffffffffffffffffffffff166323b872dd3033846040518463ffffffff1660e01b8152600401610d0a9392919061184d565b600060405180830381600087803b158015610d2457600080fd5b505af1158015610d38573d6000803e3d6000fd5b50505050336005600085815260200190815260200160002060040160006101000a81548173ffffffffffffffffffffffffffffffffffffffff021916908373ffffffffffffffffffffffffffffffffffffffff16021790555060016005600085815260200190815260200160002060060160006101000a81548160ff021916908315150217905550610dca60026111b3565b600360009054906101000a900473ffffffffffffffffffffffffffffffffffffffff1673ffffffffffffffffffffffffffffffffffffffff166108fc6004549081150290604051600060405180830381858888f19350505050158015610e34573d6000803e3d6000fd5b50505060016000819055505050565b60606000610e5160016111a5565b905060008060005b83811015610ef9573373ffffffffffffffffffffffffffffffffffffffff1660056000600184610e899190611618565b815260200190815260200160002060030160009054906101000a900473ffffffffffffffffffffffffffffffffffffffff1673ffffffffffffffffffffffffffffffffffffffff1603610ee657600183610ee39190611618565b92505b8080610ef19061167b565b915050610e59565b5060008267ffffffffffffffff811115610f1657610f156115e9565b5b604051908082528060200260200182016040528015610f4f57816020015b610f3c6111c9565b815260200190600190039081610f345790505b50905060005b8481101561119a573373ffffffffffffffffffffffffffffffffffffffff1660056000600184610f859190611618565b815260200190815260200160002060030160009054906101000a900473ffffffffffffffffffffffffffffffffffffffff1673ffffffffffffffffffffffffffffffffffffffff160361118757600060056000600184610fe59190611618565b81526020019081526020016000206000015490506000600560008381526020019081526020016000209050806040518060e0016040529081600082015481526020016001820160009054906101000a900473ffffffffffffffffffffffffffffffffffffffff1673ffffffffffffffffffffffffffffffffffffffff1673ffffffffffffffffffffffffffffffffffffffff168152602001600282015481526020016003820160009054906101000a900473ffffffffffffffffffffffffffffffffffffffff1673ffffffffffffffffffffffffffffffffffffffff1673ffffffffffffffffffffffffffffffffffffffff1681526020016004820160009054906101000a900473ffffffffffffffffffffffffffffffffffffffff1673ffffffffffffffffffffffffffffffffffffffff1673ffffffffffffffffffffffffffffffffffffffff168152602001600582015481526020016006820160009054906101000a900460ff16151515158152505084868151811061116a5761116961164c565b5b60200260200101819052506001856111829190611618565b945050505b80806111929061167b565b915050610f55565b508094505050505090565b600081600001549050919050565b6001816000016000828254019250508190555050565b6040518060e0016040528060008152602001600073ffffffffffffffffffffffffffffffffffffffff16815260200160008152602001600073ffffffffffffffffffffffffffffffffffffffff168152602001600073ffffffffffffffffffffffffffffffffffffffff168152602001600081526020016000151581525090565b600081519050919050565b600082825260208201905092915050565b6000819050602082019050919050565b6000819050919050565b61128981611276565b82525050565b600073ffffffffffffffffffffffffffffffffffffffff82169050919050565b60006112ba8261128f565b9050919050565b6112ca816112af565b82525050565b60006112db8261128f565b9050919050565b6112eb816112d0565b82525050565b60008115159050919050565b611306816112f1565b82525050565b60e0820160008201516113226000850182611280565b50602082015161133560208501826112c1565b5060408201516113486040850182611280565b50606082015161135b60608501826112e2565b50608082015161136e60808501826112e2565b5060a082015161138160a0850182611280565b5060c082015161139460c08501826112fd565b50505050565b60006113a6838361130c565b60e08301905092915050565b6000602082019050919050565b60006113ca8261124a565b6113d48185611255565b93506113df83611266565b8060005b838110156114105781516113f7888261139a565b9750611402836113b2565b9250506001810190506113e3565b5085935050505092915050565b6000602082019050818103600083015261143781846113bf565b905092915050565b61144881611276565b82525050565b6000602082019050611463600083018461143f565b92915050565b600080fd5b611477816112af565b811461148257600080fd5b50565b6000813590506114948161146e565b92915050565b6114a381611276565b81146114ae57600080fd5b50565b6000813590506114c08161149a565b92915050565b6000806000606084860312156114df576114de611469565b5b60006114ed86828701611485565b93505060206114fe868287016114b1565b925050604061150f868287016114b1565b9150509250925092565b60006020828403121561152f5761152e611469565b5b600061153d848285016114b1565b91505092915050565b6000806040838503121561155d5761155c611469565b5b600061156b85828601611485565b925050602061157c858286016114b1565b9150509250929050565b7f4e487b7100000000000000000000000000000000000000000000000000000000600052601160045260246000fd5b60006115c082611276565b91506115cb83611276565b92508282039050818111156115e3576115e2611586565b5b92915050565b7f4e487b7100000000000000000000000000000000000000000000000000000000600052604160045260246000fd5b600061162382611276565b915061162e83611276565b925082820190508082111561164657611645611586565b5b92915050565b7f4e487b7100000000000000000000000000000000000000000000000000000000600052603260045260246000fd5b600061168682611276565b91507fffffffffffffffffffffffffffffffffffffffffffffffffffffffffffffffff82036116b8576116b7611586565b5b600182019050919050565b600082825260208201905092915050565b7f5265656e7472616e637947756172643a207265656e7472616e742063616c6c00600082015250565b600061170a601f836116c3565b9150611715826116d4565b602082019050919050565b60006020820190508181036000830152611739816116fd565b9050919050565b7f5072696365206d7573742062652061626f7665207a65726f0000000000000000600082015250565b60006117766018836116c3565b915061178182611740565b602082019050919050565b600060208201905081810360008301526117a581611769565b9050919050565b7f5072696365206d75737420626520657175616c20746f206c697374696e67207060008201527f7269636500000000000000000000000000000000000000000000000000000000602082015250565b60006118086024836116c3565b9150611813826117ac565b604082019050919050565b60006020820190508181036000830152611837816117fb565b9050919050565b611847816112af565b82525050565b6000606082019050611862600083018661183e565b61186f602083018561183e565b61187c604083018461143f565b949350505050565b61188d816112f1565b82525050565b60006080820190506118a8600083018761183e565b6118b5602083018661183e565b6118c2604083018561143f565b6118cf6060830184611884565b95945050505050565b7f5375626d6974206d656e74696f6e656420707269636520746f20636f6d706c6560008201527f7465207075726368617365000000000000000000000000000000000000000000602082015250565b6000611934602b836116c3565b915061193f826118d8565b604082019050919050565b6000602082019050818103600083015261196381611927565b905091905056fea26469706673582212206098aa22cdfa49dc231273d82deb70a4efa313a56e6e09fed4a2330be64143a564736f6c63430008110033",
  "linkReferences": {},
  "deployedLinkReferences": {}
}